:100000000C947D000C948F000C948F000C948F0046
:100010000C948F000C948F000C948F000C948F0024
:100020000C9486010C948F000C948F000C948F001C
:100030000C948F000C948F000C948F000C948F0004
:100040000C948F000C948F000C948F000C948F00F4
:100050000C948F00F901F601F001EA01E401F301CB
:10006000DF01E701ED01870280027202640256029D
:1000700079024F025D026B0207634236B79BD8A735
:100080001A39685618AEBAAB558C1D3CB7CC5763BD
:10009000BD6DEDFD753EF6177231BF000000803F6B
:1000A00008000000BE922449123EABAAAA2ABECD87
:1000B000CCCC4C3E00000080BEABAAAAAA3E0000F9
:1000C0000000BF000000803F0000000000084178F1
:1000D000D3BB4387D1133D190E3CC3BD4282AD2B28
:1000E0003E68EC8276BED98FE1A93E4C80EFFFBE20
:1000F00001C4FF7F3F000000000011241FBECFE5B8
:10010000D4E0DEBFCDBF20E0A0E6B0E001C01D928C
:10011000A137B207E1F70E94BE020C9489060C9445
:10012000000017B883E886B9089597B1907E97B913
:1001300097B18770982B97B9369A349BFECF349A33
:1001400084B195B1089584E69FEF9DBD8CBD1FBC21
:1001500085E08EBD84E089BF7894089511B861B1BF
:10016000637070E080E090E00E94D5039B01AC01D9
:1001700060E070E080E890E40E94F2049B01AC0132
:100180000E94C1029B01AC0160E070E080E89FE446
:100190000E9432030E94A40360B9089594EA96BFB6
:1001A00006B607FEFDCF83B984E886BF06B607FE14
:1001B000FDCF089584E986BF86B708956AE00E945E
:1001C000770620E1829F900D1124892F08950E94C7
:1001D000DE0083B984E886BF06B607FEFDCF08952A
:1001E00093B183B192959F708F702AE0929F800D9A
:1001F00011240895CF93C82F0E94AE0080EA0E9478
:10020000CE008C2F0E94E70081EA0E94CE008C2F46
:1002100090E00E94F000C82F0E94DA008C2FCF914E
:1002200008956091670070916800809169009091D5
:100230006A0020916D0030916E0040916F005091E6
:1002400070000E94C10260936D0070936E008093F5
:100250006F0090937000209160002F5F20936000EA
:100260002930C1F420E030E040E251E40E94320342
:1002700060936300709364008093650090936600C0
:100280001092600010926D0010926E0010926F003C
:1002900010927000089580E00E94950090936C0089
:1002A00080936B0080916B0090916C0025E0289FFB
:1002B000B001299F700D112480E090E00E94D303CB
:1002C00020E030EC4FE754E40E9432036093670073
:1002D000709368008093690090936A006091670052
:1002E000709168008091690090916A0020E030E090
:1002F00048EC52E40E9485046093670070936800A4
:100300008093690090936A000C9411011F920F92E0
:100310000FB60F9211242F933F934F935F936F93D8
:100320007F938F939F93AF93BF93EF93FF9384E655
:100330009FEF9DBD8CBD0E944B01FF91EF91BF913E
:10034000AF919F918F917F916F915F914F913F916D
:100350002F910F900FBE0F901F901895CF92DF92A4
:10036000EF92FF920F931F93CF93DF93C5E3D0E4F7
:1003700010E605E485E7F82E90E5E92E20E7D22E79
:1003800035E5C32EB39B3EC0809161009091620021
:10039000B39B02C0019603C0B29B05C00197909326
:1003A000620080936100E0916100F09162003596F7
:1003B000E930F10510F5E65DFF4F0C94830681E40A
:1003C0000E94FA0082BB19C0C2BA87E314C0D2BA35
:1003D00086E411C0E2BA82E30EC0F2BA8BE40BC02D
:1003E00002BB8DE208C012BB8CE305C0D2BB88E221
:1003F00002C0C2BB83E20E94FA00B399FECFB29959
:10040000FCCFC0CFB299C0CFDF91CF911F910F9198
:10041000FF90EF90DF90CF900895CF92DF92EF9210
:10042000FF92CF9392B3981327C0C42FC09063005C
:10043000D0906400E0906500F090660070E080E08D
:1004400090E00E94D503A70196010E942D03181683
:100450001CF0C59AC69810C06C2F70E080E090E048
:100460000E94D5039B01AC01C701B6010E942D0378
:10047000181614F0C598C69ACF91FF90EF90DF90B0
:10048000CF900895E0916100F09162003596E930D7
:10049000F10508F044C0ED5CFF4F0C9483064CE37B
:1004A00050E066E470E085E690E037C042E350E05B
:1004B0006CE370E085E590E030C041E450E06BE42F
:1004C00070E080E790E029C04DE250E067E370E023
:1004D00080E590E022C046E450E060E570E085E70A
:1004E00090E01BC048E250E062E370E085E490E0F9
:1004F00014C047E350E061E470E080E690E00DC096
:1005000043E250E06DE270E080E490E006C04EE12E
:1005100050E068E270E085E390E00C940D020895ED
:100520000E94A3000E9491008FEF81BBB89AD79AD6
:10053000BD9ABE9ABC9ABB98BA98B99880E682BB1D
:10054000C498C598C698C09ADF9AC0E4D1E010E17B
:10055000B19905C00E94AE010E944202F9CF88B352
:100560008C2788BB88B38D2788BB8BB380588BBB07
:1005700088B3812788BBB199FECFECCF0E9490024F
:100580005058BB27AA270E94D8020C944B040E9403
:100590003D0438F00E94440420F039F49F3F19F4E0
:1005A00026F40C943A040EF4E095E7FB0C94340422
:1005B000E92F0E945C0458F3BA1762077307840797
:1005C000950720F079F4A6F50C947E040EF4E095DE
:1005D0000B2EBA2FA02D0B01B90190010C01CA01FD
:1005E000A0011124FF27591B99F0593F50F4503EA8
:1005F00068F11A16F040A22F232F342F4427585F9A
:10060000F3CF469537952795A795F0405395C9F7B1
:100610007EF41F16BA0B620B730B840BBAF0915069
:10062000A1F0FF0FBB1F661F771F881FC2F70EC008
:10063000BA0F621F731F841F48F4879577956795DB
:10064000B795F7959E3F08F0B0CF9395880F08F0C7
:100650009927EE0F9795879508950E94100408F446
:1006600081E008950E9446030C944B040E944404C8
:1006700058F00E943D0440F029F45F3F29F00C94AB
:10068000340451110C947F040C943A040E945C04CD
:1006900068F39923B1F3552391F3951B550BBB27B1
:1006A000AA2762177307840738F09F5F5F4F220FF6
:1006B000331F441FAA1FA9F335D00E2E3AF0E0E8ED
:1006C00032D091505040E695001CCAF72BD0FE2F37
:1006D00029D0660F771F881FBB1F261737074807CB
:1006E000AB07B0E809F0BB0B802DBF01FF27935883
:1006F0005F4F3AF09E3F510578F00C9434040C940F
:100700007F045F3FE4F3983ED4F386957795679531
:10071000B795F7959F5FC9F7880F911D96958795B7
:1007200097F90895E1E0660F771F881FBB1F6217D6
:1007300073078407BA0720F0621B730B840BBA0B94
:10074000EE1F88F7E09508950E94640488F09F5793
:1007500098F0B92F9927B751B0F0E1F0660F771FE5
:10076000881F991F1AF0BA95C9F714C0B13091F0DB
:100770000E947E04B1E008950C947E04672F782FC8
:100780008827B85F39F0B93FCCF3869577956795A0
:10079000B395D9F73EF490958095709561957F4F0C
:1007A0008F4F9F4F0895E89409C097FB3EF49095B2
:1007B0008095709561957F4F8F4F9F4F9923A9F03A
:1007C000F92F96E9BB279395F695879577956795C9
:1007D000B795F111F8CFFAF4BB0F11F460FF1BC00D
:1007E0006F5F7F4F8F4F9F4F16C0882311F096E9A0
:1007F00011C0772321F09EE8872F762F05C066234E
:1008000071F096E8862F70E060E02AF09A95660F06
:10081000771F881FDAF7880F9695879597F90895BF
:10082000990F0008550FAA0BE0E8FEEF1616170601
:10083000E807F907C0F012161306E407F50798F069
:10084000621B730B840B950B39F40A2661F0232B82
:10085000242B252B21F408950A2609F4A140A695FE
:100860008FEF811D811D089597F99F6780E870E0E3
:1008700060E008959FEF80EC089500240A94161616
:10088000170618060906089500240A94121613067E
:10089000140605060895092E0394000C11F488230C
:1008A00052F0BB0F40F4BF2B11F460FF04C06F5F28
:1008B0007F4F8F4F9F4F089557FD9058440F551FFE
:1008C00059F05F3F71F04795880F97FB991F61F0D2
:1008D0009F3F79F087950895121613061406551F49
:1008E000F2CF4695F1DF08C0161617061806991FB5
:1008F000F1CF86957105610508940895E894BB27AA
:1009000066277727CB0197F908950E9498040C94E5
:100910004B040E943D0438F00E94440420F09523CB
:1009200011F00C9434040C943A0411240C947F04B8
:100930000E945C0470F3959FC1F3950F50E0551F22
:10094000629FF001729FBB27F00DB11D639FAA2724
:10095000F00DB11DAA1F649F6627B00DA11D661F73
:10096000829F2227B00DA11D621F739FB00DA11D94
:10097000621F839FA00D611D221F749F3327A00D4E
:10098000611D231F849F600D211D822F762F6A2FEA
:1009900011249F5750409AF0F1F088234AF0EE0F4F
:1009A000FF1FBB1F661F771F881F91505040A9F77C
:1009B0009E3F510580F00C9434040C947F045F3FFB
:1009C000E4F3983ED4F3869577956795B795F795B8
:1009D000E7959F5FC1F7FE2B880F911D9695879530
:1009E00097F90895FA01EE0FFF1F309621053105A2
:1009F000A1F16115710561F48038BFE39B0749F1EE
:100A000068949038810561F08038BFEF9B0741F012
:100A100099234AF5FF3FE1053105210519F1E894D5
:100A20000894E795D901AA2329F4AB2FBE2FF85FCC
:100A3000D0F310C0FF5F70F4A695E0F7F73950F0DF
:100A400019F0FF3A38F49F779F930DD00F9007FC71
:100A50009058089546F00C943A0460E070E080E805
:100A60009FE308954FE79F775F934F933F932F93B3
:100A70000E94ED052F913F914F915F910E94850457
:100A80000C944A0529F416F00C9434040C947E045A
:100A90000C943A040E946404A8F39638A0F707F86F
:100AA0000F92E8942BE33AEA48EB5FE70E949B043D
:100AB0000F920F920F924DB75EB70F920E943506BC
:100AC000E8E7F0E00E947C054F915F91EF91FF9184
:100AD000E595EE1FFF1F49F0FE57E0684427EE0F33
:100AE000441FFA95E1F74195550B0E94AF050F9011
:100AF00007FE0C94A3050895DF93CF931F930F93E4
:100B0000FF92EF92DF927B018C01689406C0DA2E8F
:100B1000EF010E949804FE01E894A591259135917A
:100B200045915591A6F3EF010E94D802FE0197016D
:100B3000A801DA9469F7DF90EF90FF900F911F9171
:100B4000CF91DF9108959B01AC0160E070E080E8F7
:100B50009FE30C9432030C9434040C9469060E94B5
:100B60006404D8F39923C9F3940F511DA3F3915052
:100B7000504094F059F0882332F0660F771F881F99
:100B800091505040C1F79E3F51052CF7880F911DA1
:100B90009695879597F908955F3FACF0983E9CF045
:100BA000BB27869577956795B79508F4B1609395BF
:100BB000C1F7BB0F58F711F460FFE8CF6F5F7F4FAD
:100BC0008F4F9F4FE3CF0C947F0416F00C9469066F
:100BD0000C943A0468940C9434040E946404A8F3BE
:100BE0009923C1F3AEF3DF93CF931F930F93FF923B
:100BF000C92FDD2788232AF02197660F771F881FCA
:100C0000DAF720E030E040E85FEB9FE3883920F03E
:100C1000803E38F021968F770E94C102E0EAF0E032
:100C200004C00E94C102EDECF0E00E947C058B0143
:100C3000BE01EC01FB2E6F5771097595771F880B6C
:100C4000990B0E94D50328E132E741E35FE30E945C
:100C50009804AF2D9801AE01FF900F911F91CF9195
:100C6000DF910E94D8020C944B04FA01DC01AA0F18
:100C7000BB1F9B01AC01BF5728F422273327442711
:100C8000507820C0B75190F4AB2F0024469537958B
:100C90002795011CA395D2F3002071F0220F331F7A
:100CA000441FB395DAF30ED00C94C0026130710585
:100CB000A0E88A07B94630F49B01AC016627772784
:100CC00088279078309621F02083318342835383A4
:100CD00008959F3F31F0915020F48795779567955F
:100CE000B795880F911D9695879597F90895991B4B
:100CF00079E004C0991F961708F0961B881F7A9513
:100D0000C9F780950895EE0FFF1F0590F491E02D2F
:060D10000994F894FFCFE6
:00000001FF
