:100000000C943C000C944E000C944E000C944E004A
:100010000C944E000C944E000C944E000C944E0028
:100020000C94E2000C944E000C944E000C944E0084
:100030000C944E000C944E000C944E000C944E0008
:100040000C944E000C944E000C944E000C944E00F8
:100050000C944E0041013F013B01370133013D014A
:10006000310135013901C501BE01B001A201940180
:10007000B7018D019B01A90111241FBECFE5D4E07A
:10008000DEBFCDBF20E0A0E6B0E001C01D92A137E9
:10009000B207E1F70E94FC010C9407040C940000E5
:1000A00017B883E886B9089597B1907E97B997B14C
:1000B0008770982B97B9369A349BFECF349A84B1C7
:1000C00095B1089584E69FEF9DBD8CBD1FBC85E072
:1000D0008EBD84E089BF7894089560916700709127
:1000E00068008091690090916A0020916D003091C4
:1000F0006E0040916F00509170000E94FF0160936C
:100100006D0070936E0080936F009093700020914B
:1001100060002F5F209360002930C1F420E030E0C0
:1001200040E251E40E9470026093630070936400A7
:1001300080936500909366001092600010926D00AD
:1001400010926E0010926F0010927000089580E07F
:100150000E94540090936C0080936B0080916B0020
:1001600090916C0025E0289FB001299F700D11240B
:1001700080E090E00E94E20220E030EC4FE754E49F
:100180000E9470026093670070936800809369001A
:1001900090936A0060916700709168008091690097
:1001A00090916A0020E030E048EC52E40E94940311
:1001B00060936700709368008093690090936A0071
:1001C0000C946D001F920F920FB60F9211242F9373
:1001D0003F934F935F936F937F938F939F93AF93CF
:1001E000BF93EF93FF9384E69FEF9DBD8CBD0E946C
:1001F000A700FF91EF91BF91AF919F918F917F9158
:100200006F915F914F913F912F910F900FBE0F9083
:100210001F901895CF9325E330E440E655E465E759
:1002200070E5A0E7B5E5C5E6B39B31C080916100FC
:1002300090916200B39B02C0019603C0B29B05C0BF
:1002400001979093620080936100E0916100F091CA
:1002500062003596E930F105A8F4E65DFF4F0C9495
:100260000104C2BB0FC0B2BB0DC0A2BB0BC072BBAE
:1002700009C062BB07C052BB05C042BB03C032BB52
:1002800001C022BBB399FECFB299FCCFCDCFB299BA
:10029000CDCFCF910895CF92DF92EF92FF92CF937F
:1002A00092B3981327C0C42FC0906300D09064000D
:1002B000E0906500F090660070E080E090E00E94C1
:1002C000E402A70196010E946B0218161CF0C59A61
:1002D000C69810C06C2F70E080E090E00E94E402AD
:1002E0009B01AC01C701B6010E946B02181614F005
:1002F000C598C69ACF91FF90EF90DF90CF90089568
:10030000E0916100F09162003596E930F10508F066
:1003100044C0ED5CFF4F0C9401044CE350E066E4F4
:1003200070E085E690E037C042E350E06CE370E0B7
:1003300085E590E030C041E450E06BE470E080E798
:1003400090E029C04DE250E067E370E080E590E086
:1003500022C046E450E060E570E085E790E01BC015
:1003600048E250E062E370E085E490E014C047E3C7
:1003700050E061E470E080E690E00DC043E250E0C0
:100380006DE270E080E490E006C04EE150E068E28B
:1003900070E085E390E00C944B0108950E946200A8
:1003A0000E9450008FEF81BBB89AD79ABD9ABE9A2F
:1003B000BC9ABB98BA98B99880E682BBC498C59895
:1003C000C698C09ADF9AC0E4D1E010E1B19905C0A7
:1003D0000E940A010E948001F9CF88B38C2788BB54
:1003E00088B38D2788BB8BB380588BBB88B381279C
:1003F00088BBB199FECFECCF0E94CE015058BB27ED
:10040000AA270E9416020C945A030E944C0338F04B
:100410000E94530320F039F49F3F19F426F40C9402
:1004200049030EF4E095E7FB0C944303E92F0E9487
:100430006B0358F3BA17620773078407950720F018
:1004400079F4A6F50C948D030EF4E0950B2EBA2FDB
:10045000A02D0B01B90190010C01CA01A0011124CA
:10046000FF27591B99F0593F50F4503E68F11A1676
:10047000F040A22F232F342F4427585FF3CF469507
:1004800037952795A795F0405395C9F77EF41F1629
:10049000BA0B620B730B840BBAF09150A1F0FF0FF3
:1004A000BB1F661F771F881FC2F70EC0BA0F621FDF
:1004B000731F841F48F4879577956795B795F795CF
:1004C0009E3F08F0B0CF9395880F08F09927EE0F64
:1004D0009795879508950E941F0308F481E0089579
:1004E0000E9484020C945A030E94530358F00E9405
:1004F0004C0340F029F45F3F29F00C944303511161
:100500000C948E030C9449030E946B0368F39923A7
:10051000B1F3552391F3951B550BBB27AA276217FF
:100520007307840738F09F5F5F4F220F331F441F0C
:10053000AA1FA9F335D00E2E3AF0E0E832D0915040
:100540005040E695001CCAF72BD0FE2F29D0660F2D
:10055000771F881FBB1F261737074807AB07B0E870
:1005600009F0BB0B802DBF01FF2793585F4F3AF076
:100570009E3F510578F00C9443030C948E035F3F2B
:10058000E4F3983ED4F3869577956795B795F795FC
:100590009F5FC9F7880F911D9695879597F90895E4
:1005A000E1E0660F771F881FBB1F62177307840780
:1005B000BA0720F0621B730B840BBA0BEE1F88F78F
:1005C000E0950895E89409C097FB3EF490958095D6
:1005D000709561957F4F8F4F9F4F9923A9F0F92F09
:1005E00096E9BB279395F695879577956795B79587
:1005F000F111F8CFFAF4BB0F11F460FF1BC06F5F6D
:100600007F4F8F4F9F4F16C0882311F096E911C07E
:10061000772321F09EE8872F762F05C0662371F09F
:1006200096E8862F70E060E02AF09A95660F771FB3
:10063000881FDAF7880F9695879597F90895990F8F
:100640000008550FAA0BE0E8FEEF16161706E8079C
:10065000F907C0F012161306E407F50798F0621BBD
:10066000730B840B950B39F40A2661F0232B242B92
:10067000252B21F408950A2609F4A140A6958FEFB1
:10068000811D811D089597F99F6780E870E060E003
:1006900008959FEF80EC089500240A94161617061B
:1006A00018060906089500240A9412161306140663
:1006B00005060895092E0394000C11F4882352F0C6
:1006C000BB0F40F4BF2B11F460FF04C06F5F7F4F7E
:1006D0008F4F9F4F089557FD9058440F551F59F065
:1006E0005F3F71F04795880F97FB991F61F09F3F1F
:1006F00079F087950895121613061406551FF2CF48
:100700004695F1DF08C0161617061806991FF1CF97
:1007100086957105610508940895E894BB276627BE
:100720007727CB0197F908950E94A7030C945A03E9
:100730000E944C0338F00E94530320F0952311F0DF
:100740000C9443030C94490311240C948E030E94CF
:100750006B0370F3959FC1F3950F50E0551F629F97
:10076000F001729FBB27F00DB11D639FAA27F00D0A
:10077000B11DAA1F649F6627B00DA11D661F829F31
:100780002227B00DA11D621F739FB00DA11D621F16
:10079000839FA00D611D221F749F3327A00D611D33
:1007A000231F849F600D211D822F762F6A2F112415
:1007B0009F5750409AF0F1F088234AF0EE0FFF1F48
:1007C000BB1F661F771F881F91505040A9F79E3F9F
:1007D000510580F00C9443030C948E035F3FE4F3C7
:1007E000983ED4F3869577956795B795F795E795F5
:1007F0009F5FC1F7FE2B880F911D9695879597F9FE
:100800000895EE0FFF1F0590F491E02D0994F894E0
:02081000FFCF18
:00000001FF
