:100000000C947D000C948F000C948F000C948F0046
:100010000C948F000C948F000C948F000C948F0024
:100020000C9481010C948F000C948F000C948F0021
:100030000C948F000C948F000C948F000C948F0004
:100040000C948F000C948F000C948F000C948F00F4
:100050000C948F00DF01DD01D901D501D101DB0155
:10006000CF01D301D7017F0278026A025C024E02FF
:10007000710247025502630207634236B79BD8A755
:100080001A39685618AEBAAB558C1D3CB7CC5763BD
:10009000BD6DEDFD753EF6177231BF000000803F6B
:1000A00008000000BE922449123EABAAAA2ABECD87
:1000B000CCCC4C3E00000080BEABAAAAAA3E0000F9
:1000C0000000BF000000803F0000000000084178F1
:1000D000D3BB4387D1133D190E3CC3BD4282AD2B28
:1000E0003E68EC8276BED98FE1A93E4C80EFFFBE20
:1000F00001C4FF7F3F000000000011241FBECFE5B8
:10010000D4E0DEBFCDBF20E0A0E6B0E001C01D928C
:10011000A237B207E1F70E94E1020C94AC060C94FE
:10012000000017B883E886B9089597B1907E97B913
:1001300097B18770982B97B9369A349BFECF349A33
:1001400084B195B1089584E69FEF9DBD8CBD1FBC21
:1001500085E08EBD84E089BF7894089511B861B1BF
:10016000637070E080E090E00E94F8039B01AC01B6
:1001700060E070E080E890E40E9415059B01AC010E
:100180000E94E4029B01AC0160E070E080E89FE423
:100190000E9455030E94C70360B9089594EA96BF70
:1001A00006B607FEFDCF83B984E886BF06B607FE14
:1001B000FDCF089584E886BF06B607FEFDCF83B164
:1001C000089584E986BF86B708956AE00E949A067A
:1001D00020E1829F900D1124892F08950E94E5004F
:1001E00083B984E886BF06B607FEFDCF0895CF9396
:1001F000C82F0E94AE0080EA0E94CE008C2F0E9481
:10020000EE0081EA0E94CE000E94DA00C82F0E9410
:10021000E1008C2FCF910895609168007091690082
:1002200080916A0090916B0020916E0030916F0078
:1002300040917000509171000E94E40260936E0042
:1002400070936F0080937000909371002091610013
:100250002F5F209361002930C1F420E030E040E2BC
:1002600051E40E945503609364007093650080938D
:100270006600909367001092610010926E001092D9
:100280006F001092700010927100089580E00E943B
:10029000950090936D0080936C0080916C0090911C
:1002A0006D0025E0289FB001299F700D112480E08A
:1002B00090E00E94F60320E030EC4FE754E40E9407
:1002C0005503609368007093690080936A0090936F
:1002D0006B00609168007091690080916A00909154
:1002E0006B0020E030E048EC52E40E94A8046093E8
:1002F00068007093690080936A0090936B000C947F
:100300000C011F920F920FB60F9211242F933F935F
:100310004F935F936F937F938F939F93AF93BF930D
:10032000EF93FF9384E69FEF9DBD8CBD0E94460135
:10033000FF91EF91BF91AF919F918F917F916F91BD
:100340005F914F913F912F910F900FBE0F901F9093
:100350001895B39902C0B29B45C0809162009091FC
:100360006300B39B05C08330910514F4019607C068
:10037000B29B09C08C3F2FEF92072CF0019790930E
:10038000630080936200E0916200F0916300359613
:10039000E930F105B0F4E65DFF4F0C94A60685E662
:1003A0000FC085E50DC080E70BC080E509C085E77B
:1003B00007C085E405C080E603C080E401C085E392
:1003C00082BBB399FECFB299FCCF809162000E94AC
:1003D000F7008FE798E321E0815090402040E1F75B
:1003E00000C000000895CF92DF92EF92FF92CF936A
:1003F000209162003091630028173907A9F5C42FB6
:10040000C0906400D0906500E0906600F0906700B6
:1004100070E080E090E00E94F803A70196010E943E
:100420005003181624F0C59AC698C49A1DC06C2FA4
:1004300070E080E090E00E94F8039B01AC01C701EE
:10044000B6010E94500318167CF0C598C69A98B35E
:1004500080E1892788BB2FED82E292E02150804025
:100460009040E1F700C00000CF91FF90EF90DF9047
:10047000CF900895E0916200F09163003596E930E5
:10048000F10508F044C0ED5CFF4F0C94A6064CE368
:1004900050E066E470E081E090E037C042E350E075
:1004A0006CE370E08FEF9FEF30C041E450E06BE40D
:1004B00070E082E090E029C04DE250E067E370E038
:1004C0008EEF9FEF22C046E450E060E570E083E0ED
:1004D00090E01BC048E250E062E370E08DEF9FEFD8
:1004E00014C047E350E061E470E080E090E00DC0AC
:1004F00043E250E06DE270E08CEF9FEF06C04EE10A
:1005000050E068E270E08BEF9FEF0C94F3010895E8
:10051000B19B10C08091600081110CC088B391E044
:10052000892788BB8BB380588BBB90936000B199AF
:10053000FECF0895B19B11C080916000813069F4B5
:100540001092600098B3892788BB8BB380588BBB0F
:10055000C498C598C698B199FECF0895C098DF9801
:10056000609168007091690080916A0090916B00C1
:100570000E94C703862F0E94E50082BB08950E9457
:10058000A3000E9491008FEF81BBB89AD79ABD9AC1
:10059000BE9ABC9ABB98BA98B99880E682BBC498B8
:1005A000C598C698C09ADF9A0E9488028091600020
:1005B0008130D1F70E94AE020E943A020E94A90146
:1005C000F3CF0E94BF025058BB27AA270E94FB020C
:1005D0000C946E040E94600438F00E94670420F0BE
:1005E00039F49F3F19F426F40C945D040EF4E09561
:1005F000E7FB0C945704E92F0E947F0458F3BA17C5
:10060000620773078407950720F079F4A6F50C9428
:10061000A1040EF4E0950B2EBA2FA02D0B01B90109
:1006200090010C01CA01A0011124FF27591B99F068
:10063000593F50F4503E68F11A16F040A22F232F74
:10064000342F4427585FF3CF469537952795A795C4
:10065000F0405395C9F77EF41F16BA0B620B730B6B
:10066000840BBAF09150A1F0FF0FBB1F661F771FDC
:10067000881FC2F70EC0BA0F621F731F841F48F491
:10068000879577956795B795F7959E3F08F0B0CF1A
:100690009395880F08F09927EE0F97958795089501
:1006A0000E94330408F481E008950E9469030C94C9
:1006B0006E040E94670458F00E94600440F029F420
:1006C0005F3F29F00C94570451110C94A2040C9430
:1006D0005D040E947F0468F39923B1F3552391F3DD
:1006E000951B550BBB27AA2762177307840738F0A1
:1006F0009F5F5F4F220F331F441FAA1FA9F335D0FE
:100700000E2E3AF0E0E832D091505040E695001CB1
:10071000CAF72BD0FE2F29D0660F771F881FBB1F6B
:10072000261737074807AB07B0E809F0BB0B802D49
:10073000BF01FF2793585F4F3AF09E3F510578F075
:100740000C9457040C94A2045F3FE4F3983ED4F356
:10075000869577956795B795F7959F5FC9F7880F49
:10076000911D9695879597F90895E1E0660F771F9B
:10077000881FBB1F621773078407BA0720F0621B2C
:10078000730B840BBA0BEE1F88F7E09508950E9457
:10079000870488F09F5798F0B92F9927B751B0F088
:1007A000E1F0660F771F881F991F1AF0BA95C9F7F5
:1007B00014C0B13091F00E94A104B1E008950C94EE
:1007C000A104672F782F8827B85F39F0B93FCCF3A1
:1007D000869577956795B395D9F73EF49095809572
:1007E000709561957F4F8F4F9F4F0895E89409C092
:1007F00097FB3EF490958095709561957F4F8F4F54
:100800009F4F9923A9F0F92F96E9BB279395F69569
:10081000879577956795B795F111F8CFFAF4BB0FE7
:1008200011F460FF1BC06F5F7F4F8F4F9F4F16C04B
:10083000882311F096E911C0772321F09EE8872FD5
:10084000762F05C0662371F096E8862F70E060E091
:100850002AF09A95660F771F881FDAF7880F96950A
:10086000879597F90895990F0008550FAA0BE0E8AE
:10087000FEEF16161706E807F907C0F01216130662
:10088000E407F50798F0621B730B840B950B39F4A2
:100890000A2661F0232B242B252B21F408950A2608
:1008A00009F4A140A6958FEF811D811D089597F948
:1008B0009F6780E870E060E008959FEF80EC089506
:1008C00000240A941616170618060906089500242F
:1008D0000A9412161306140605060895092E0394A9
:1008E000000C11F4882352F0BB0F40F4BF2B11F41D
:1008F00060FF04C06F5F7F4F8F4F9F4F089557FD7C
:100900009058440F551F59F05F3F71F04795880F7D
:1009100097FB991F61F09F3F79F087950895121614
:1009200013061406551FF2CF4695F1DF08C01616C0
:1009300017061806991FF1CF869571056105089471
:100940000895E894BB2766277727CB0197F9089588
:100950000E94BB040C946E040E94600438F00E9454
:10096000670420F0952311F00C9457040C945D0457
:1009700011240C94A2040E947F0470F3959FC1F38C
:10098000950F50E0551F629FF001729FBB27F00D3D
:10099000B11D639FAA27F00DB11DAA1F649F662792
:1009A000B00DA11D661F829F2227B00DA11D621FE1
:1009B000739FB00DA11D621F839FA00D611D221F9B
:1009C000749F3327A00D611D231F849F600D211D7F
:1009D000822F762F6A2F11249F5750409AF0F1F002
:1009E00088234AF0EE0FFF1FBB1F661F771F881F6B
:1009F00091505040A9F79E3F510580F00C94570448
:100A00000C94A2045F3FE4F3983ED4F38695779567
:100A10006795B795F795E7959F5FC1F7FE2B880F10
:100A2000911D9695879597F90895FA01EE0FFF1F8E
:100A3000309621053105A1F16115710561F4803809
:100A4000BFE39B0749F168949038810561F08038D5
:100A5000BFEF9B0741F099234AF5FF3FE1053105C0
:100A6000210519F1E8940894E795D901AA2329F4FE
:100A7000AB2FBE2FF85FD0F310C0FF5F70F4A695C8
:100A8000E0F7F73950F019F0FF3A38F49F779F9369
:100A90000DD00F9007FC9058089546F00C945D041B
:100AA00060E070E080E89FE308954FE79F775F93F1
:100AB0004F933F932F930E9410062F913F914F9198
:100AC0005F910E94A8040C946D0529F416F00C9413
:100AD00057040C94A1040C945D040E948704A8F3AD
:100AE0009638A0F707F80F92E8942BE33AEA48EB20
:100AF0005FE70E94BE040F920F920F924DB75EB750
:100B00000F920E945806E8E7F0E00E949F054F917F
:100B10005F91EF91FF91E595EE1FFF1F49F0FE57A2
:100B2000E0684427EE0F441FFA95E1F74195550B15
:100B30000E94D2050F9007FE0C94C6050895DF931E
:100B4000CF931F930F93FF92EF92DF927B018C0163
:100B5000689406C0DA2EEF010E94BB04FE01E894FF
:100B6000A5912591359145915591A6F3EF010E94EC
:100B7000FB02FE019701A801DA9469F7DF90EF907C
:100B8000FF900F911F91CF91DF9108959B01AC01D0
:100B900060E070E080E89FE30C9455030C945704E8
:100BA0000C948C060E948704D8F39923C9F3940F00
:100BB000511DA3F39150504094F059F0882332F026
:100BC000660F771F881F91505040C1F79E3F510517
:100BD0002CF7880F911D9695879597F908955F3F9B
:100BE000ACF0983E9CF0BB27869577956795B795B6
:100BF00008F4B1609395C1F7BB0F58F711F460FF8B
:100C0000E8CF6F5F7F4F8F4F9F4FE3CF0C94A204CD
:100C100016F00C948C060C945D0468940C945704A4
:100C20000E948704A8F39923C1F3AEF3DF93CF9317
:100C30001F930F93FF92C92FDD2788232AF0219756
:100C4000660F771F881FDAF720E030E040E85FEB9F
:100C50009FE3883920F0803E38F021968F770E94FC
:100C6000E402E0EAF0E004C00E94E402EDECF0E00F
:100C70000E949F058B01BE01EC01FB2E6F5771098D
:100C80007595771F880B990B0E94F80328E132E7CE
:100C900041E35FE30E94BB04AF2D9801AE01FF90DA
:100CA0000F911F91CF91DF910E94FB020C946E0473
:100CB000FA01DC01AA0FBB1F9B01AC01BF5728F44E
:100CC000222733274427507820C0B75190F4AB2F08
:100CD0000024469537952795011CA395D2F3002053
:100CE00071F0220F331F441FB395DAF30ED00C942A
:100CF000E30261307105A0E88A07B94630F49B0130
:100D0000AC016627772788279078309621F02083DA
:100D100031834283538308959F3F31F0915020F4F3
:100D2000879577956795B795880F911D96958795C7
:100D300097F90895991B79E004C0991F961708F058
:100D4000961B881F7A95C9F780950895EE0FFF1FAF
:0C0D50000590F491E02D0994F894FFCF79
:00000001FF
