S00C0000636F64652E737265637D
S11300000C942A000C943C000C943C000C943C008E
S11300100C943C000C943C000C943C000C943C006C
S11300200C943C000C943C000C943C000C943C005C
S11300300C943C000C943C000C943C000C943C004C
S11300400C943C000C943C000C943C000C943C003C
S11300500C943C0011241FBECFE5D4E0DEBFCDBF1D
S113006020E0A0E6B0E001C01D92A036B207E1F79F
S11300700E946B000C946D000C9400008FEF81BB08
S1130080B89AD79ABD9ABE9ABB98BA98B99880E69E
S113009082BBC598C698C09ADF9A90E421E0B19BD0
S11300A00CC088B3892788BB88B3822788BB8BB3ED
S11300B080588BBBB199FECFF2CFB19BF0CF88B300
S11300C0892788BB88B3822788BB8BB380588BBBB6
S11100D0B199FECFE4CF0E943E00F894FFCF1A
S9030000FC
