:100000000C9433000C9445000C9445000C9445006E
:100010000C9445000C9445000C9445000C9445004C
:100020000C94D9000C9445000C9445000C944500A8
:100030000C9445000C9445000C9445000C9445002C
:100040000C9445000C9445000C9445000C9445001C
:100050000C9445003801360132012E012A01340189
:1000600028012C01300111241FBECFE5D4E0DEBFF2
:10007000CDBF20E0A0E6B0E001C01D92AA36B207D5
:10008000E1F70E9481010C94BB030C94000017B8A7
:1000900083E886B9089597B1907E97B997B1877034
:1000A000982B97B9369A349BFECF349A84B195B188
:1000B000089584E69FEF9DBD8CBD1FBC85E08EBD7D
:1000C00084E089BF78940895609164007091650020
:1000D000809166009091670020E030E040E85FE3A7
:1000E0000E948401609364007093650080936600B1
:1000F00090936700809160008F5F809360008930EB
:10010000E0F06091640070916500809166009091CC
:10011000670020E030E040E251E40E94F0010E94DC
:10012000620260936300109260001092640010926B
:1001300065001092660010926700089580E00E94AA
:100140004B009093690080936800809168009091C3
:10015000690025E0289FB001299F700D112480E0DF
:1001600090E00E94910220E030EC4FE754E40E94BE
:10017000F001609364007093650080936600909333
:1001800067006091640070916500809166009091B5
:10019000670020E030E048EC52E40E9424036093C2
:1001A00064007093650080936600909367000C94E0
:1001B00064001F920F920FB60F9211242F933F935A
:1001C0004F935F936F937F938F939F93AF93BF935F
:1001D000EF93FF9384E69FEF9DBD8CBD0E949E0030
:1001E000FF91EF91BF91AF919F918F917F916F910F
:1001F0005F914F913F912F910F900FBE0F901F90E5
:100200001895CF9325E330E440E655E465E770E5C3
:10021000A0E7B5E5C5E6B39B31C080916100909140
:100220006200B39B02C0019603C0B29B05C0019758
:100230009093620080936100E0916100F091620010
:100240003596E930F105A8F4E65DFF4F0C94B5034F
:10025000C2BB0FC0B2BB0DC0A2BB0BC072BB09C0FA
:1002600062BB07C052BB05C042BB03C032BB01C06A
:1002700022BBB399FECFB299FCCFCDCFB299CDCFEF
:10028000CF9108950E9459000E9447008FEF81BBD3
:10029000B89AD79ABD9ABE9ABC9ABB98BA98B998A0
:1002A00080E682BBC498C598C698C09ADF9AC0E41D
:1002B000D1E010E1B19914C00E9401016091640085
:1002C00070916500809166009091670020E030E0B9
:1002D00040E252E40E941F0318168CF4C59AEACF3C
:1002E00088B38C2788BB88B38D2788BB8BB3805895
:1002F0008BBB88B3812788BBB199FECFDDCFC59872
:10030000D9CF0E9442015058BB27AA270E949B01C7
:100310000C94E5020E94D70238F00E94DE0220F021
:1003200039F49F3F19F426F40C94D4020EF4E095AE
:10033000E7FB0C94CE02E92F0E94F60258F3BA179D
:10034000620773078407950720F079F4A6F50C94EB
:1003500018030EF4E0950B2EBA2FA02D0B01B90156
:1003600090010C01CA01A0011124FF27591B99F02B
:10037000593F50F4503E68F11A16F040A22F232F37
:10038000342F4427585FF3CF469537952795A79587
:10039000F0405395C9F77EF41F16BA0B620B730B2E
:1003A000840BBAF09150A1F0FF0FBB1F661F771F9F
:1003B000881FC2F70EC0BA0F621F731F841F48F454
:1003C000879577956795B795F7959E3F08F0B0CFDD
:1003D0009395880F08F09927EE0F979587950895C4
:1003E0000E9404020C94E5020E94DE0258F00E9472
:1003F000D70240F029F45F3F29F00C94CE0251114E
:100400000C9419030C94D4020E94F60268F3992309
:10041000B1F3552391F3951B550BBB27AA27621700
:100420007307840738F09F5F5F4F220F331F441F0D
:10043000AA1FA9F335D00E2E3AF0E0E832D0915041
:100440005040E695001CCAF72BD0FE2F29D0660F2E
:10045000771F881FBB1F261737074807AB07B0E871
:1004600009F0BB0B802DBF01FF2793585F4F3AF077
:100470009E3F510578F00C94CE020C9419035F3F17
:10048000E4F3983ED4F3869577956795B795F795FD
:100490009F5FC9F7880F911D9695879597F90895E5
:1004A000E1E0660F771F881FBB1F62177307840781
:1004B000BA0720F0621B730B840BBA0BEE1F88F790
:1004C000E09508950E94FE0288F09F5798F0B92F9A
:1004D0009927B751B0F0E1F0660F771F881F991F79
:1004E0001AF0BA95C9F714C0B13091F00E94180300
:1004F000B1E008950C941803672F782F8827B85F10
:1005000039F0B93FCCF3869577956795B395D9F7D0
:100510003EF490958095709561957F4F8F4F9F4FDA
:100520000895E89409C097FB3EF4909580957095E6
:1005300061957F4F8F4F9F4F9923A9F0F92F96E92F
:10054000BB279395F695879577956795B795F111A4
:10055000F8CFFAF4BB0F11F460FF1BC06F5F7F4F41
:100560008F4F9F4F16C0882311F096E911C0772353
:1005700021F09EE8872F762F05C0662371F096E85C
:10058000862F70E060E02AF09A95660F771F881F2B
:10059000DAF7880F9695879597F9089597F99F67E9
:1005A00080E870E060E008959FEF80EC08950024FB
:1005B0000A941616170618060906089500240A94C8
:1005C00012161306140605060895092E0394000C4E
:1005D00011F4882352F0BB0F40F4BF2B11F460FFDD
:1005E00004C06F5F7F4F8F4F9F4F089557FD905806
:1005F000440F551F59F05F3F71F04795880F97FBE7
:10060000991F61F09F3F79F08795089512161306A0
:100610001406551FF2CF4695F1DF08C016161706CF
:100620001806991FF1CF8695710561050894089504
:10063000E894BB2766277727CB0197F908950E9496
:10064000910308F48FEF08950E9437030C94E5029C
:100650000E94D70238F00E94DE0220F0952311F0AC
:100660000C94CE020C94D40211240C9419030E9411
:10067000F60270F3959FC1F3950F50E0551F629FEE
:10068000F001729FBB27F00DB11D639FAA27F00DEB
:10069000B11DAA1F649F6627B00DA11D661F829F12
:1006A0002227B00DA11D621F739FB00DA11D621FF7
:1006B000839FA00D611D221F749F3327A00D611D14
:1006C000231F849F600D211D822F762F6A2F1124F6
:1006D0009F5750409AF0F1F088234AF0EE0FFF1F29
:1006E000BB1F661F771F881F91505040A9F79E3F80
:1006F000510580F00C94CE020C9419035F3FE4F393
:10070000983ED4F3869577956795B795F795E795D5
:100710009F5FC1F7FE2B880F911D9695879597F9DE
:100720000895990F0008550FAA0BE0E8FEEF161682
:100730001706E807F907C0F012161306E407F507D5
:1007400098F0621B730B840B950B39F40A2661F049
:10075000232B242B252B21F408950A2609F4A140EC
:10076000A6958FEF811D811D0895EE0FFF1F059047
:0A077000F491E02D0994F894FFCFF6
:00000001FF
