:100000000C9433000C9445000C9445000C9445006E
:100010000C9445000C9445000C9445000C9445004C
:100020000C948E000C9445000C9445000C944500F3
:100030000C9445000C9445000C9445000C9445002C
:100040000C9445000C9445000C9445000C9445001C
:100050000C944500ED00EB00E700E300DF00E90051
:10006000DD00E100E50011241FBECFE5D4E0DEBFD6
:10007000CDBF20E0A0E6B0E001C01D92A836B207D7
:10008000E1F70E9436010C94D4020C94000017B8DA
:1000900083E886B9089597B1907E97B997B1877034
:1000A000982B97B9369A349BFECF349A84B195B188
:1000B000089586EE99EF9DBD8CBD1FBC85E08EBD79
:1000C00084E089BF7894089580E00E944B0090936B
:1000D000670080936600809166009091670025E03C
:1000E000289FB001299F700D112480E090E00E94AC
:1000F000AA0120E030EC4FE754E40E94380120E0F0
:1001000030E048EC52E40E943D026093620070933C
:100110006300809364009093650008951F920F928E
:100120000FB60F9211242F933F934F935F936F93CA
:100130007F938F939F93AF93BF93EF93FF930E940F
:10014000640086EE99EF9DBD8CBDFF91EF91BF914C
:10015000AF919F918F917F916F915F914F913F915F
:100160002F910F900FBE0F901F901895CF9325E3FE
:1001700030E440E655E465E770E5A0E7B5E5C5E69F
:10018000B39B31C08091600090916100B39B02C02D
:10019000019603C0B29B05C00197909361008093C4
:1001A0006000E0916000F09161003596E930F10562
:1001B000A8F4E65DFF4F0C94CE02C2BB0FC0B2BBE9
:1001C0000DC0A2BB0BC072BB09C062BB07C052BB53
:1001D00005C042BB03C032BB01C022BBB399FECFF6
:1001E000B299FCCFCDCFB299CDCFCF9108950E94D7
:1001F00047008FEF81BBB89AD79ABD9ABE9ABC9A36
:10020000BB98BA98B99880E682BBC498C598C6983E
:10021000C09ADF9A0E945900C0E4D1E010E1B19980
:1002200014C00E94B60020E030E040EF51E460913D
:1002300062007091630080916400909165000E945B
:10024000380218168CF4C59AEACF88B38C2788BB7D
:1002500088B38D2788BB8BB380588BBB88B381272D
:1002600088BBB199FECFDDCFC598D9CF0E94F700EA
:100270000E944C010C94FE010E94F70158F00E946C
:10028000F00140F029F45F3F29F00C94E70151118F
:100290000C9432020C94ED010E940F0268F3992332
:1002A000B1F3552391F3951B550BBB27AA27621772
:1002B0007307840738F09F5F5F4F220F331F441F7F
:1002C000AA1FA9F335D00E2E3AF0E0E832D09150B3
:1002D0005040E695001CCAF72BD0FE2F29D0660FA0
:1002E000771F881FBB1F261737074807AB07B0E8E3
:1002F00009F0BB0B802DBF01FF2793585F4F3AF0E9
:100300009E3F510578F00C94E7010C9432025F3F58
:10031000E4F3983ED4F3869577956795B795F7956E
:100320009F5FC9F7880F911D9695879597F9089556
:10033000E1E0660F771F881FBB1F621773078407F2
:10034000BA0720F0621B730B840BBA0BEE1F88F701
:10035000E0950895E89409C097FB3EF49095809548
:10036000709561957F4F8F4F9F4F9923A9F0F92F7B
:1003700096E9BB279395F695879577956795B795F9
:10038000F111F8CFFAF4BB0F11F460FF1BC06F5FDF
:100390007F4F8F4F9F4F16C0882311F096E911C0F1
:1003A000772321F09EE8872F762F05C0662371F012
:1003B00096E8862F70E060E02AF09A95660F771F26
:1003C000881FDAF7880F9695879597F9089597F91A
:1003D0009F6780E870E060E008959FEF80EC0895EB
:1003E00000240A9416161706180609060895002414
:1003F0000A9412161306140605060895092E03948E
:10040000000C11F4882352F0BB0F40F4BF2B11F401
:1004100060FF04C06F5F7F4F8F4F9F4F089557FD60
:100420009058440F551F59F05F3F71F04795880F62
:1004300097FB991F61F09F3F79F0879508951216F9
:1004400013061406551FF2CF4695F1DF08C01616A5
:1004500017061806991FF1CF869571056105089456
:100460000895E894BB2766277727CB0197F908956D
:100470000E94AA0208F48FEF08950E9450020C9483
:10048000FE010E94F00138F00E94F70120F0952350
:1004900011F00C94E7010C94ED0111240C9432023C
:1004A0000E940F0270F3959FC1F3950F50E0551F06
:1004B000629FF001729FBB27F00DB11D639FAA27B9
:1004C000F00DB11DAA1F649F6627B00DA11D661F08
:1004D000829F2227B00DA11D621F739FB00DA11D29
:1004E000621F839FA00D611D221F749F3327A00DE3
:1004F000611D231F849F600D211D822F762F6A2F7F
:1005000011249F5750409AF0F1F088234AF0EE0FE3
:10051000FF1FBB1F661F771F881F91505040A9F710
:100520009E3F510580F00C94E7010C9432025F3F2E
:10053000E4F3983ED4F3869577956795B795F7954C
:10054000E7959F5FC1F7FE2B880F911D96958795C4
:1005500097F90895990F0008550FAA0BE0E8FEEFF0
:1005600016161706E807F907C0F012161306E40777
:10057000F50798F0621B730B840B950B39F40A2670
:1005800061F0232B242B252B21F408950A2609F44E
:10059000A140A6958FEF811D811D0895EE0FFF1FCD
:0C05A0000590F491E02D0994F894FFCF31
:00000001FF
