:100000000C947D000C948F000C948F000C948F0046
:100010000C948F000C948F000C948F000C948F0024
:100020000C9474010C948F000C948F000C948F002E
:100030000C948F000C948F000C948F000C948F0004
:100040000C948F000C948F000C948F000C948F00F4
:100050000C948F00E701E501E101DD01D901E30125
:10006000D701DB01DF01770270026202540246020F
:1000700069023F024D025B0207634236B79BD8A775
:100080001A39685618AEBAAB558C1D3CB7CC5763BD
:10009000BD6DEDFD753EF6177231BF000000803F6B
:1000A00008000000BE922449123EABAAAA2ABECD87
:1000B000CCCC4C3E00000080BEABAAAAAA3E0000F9
:1000C0000000BF000000803F0000000000084178F1
:1000D000D3BB4387D1133D190E3CC3BD4282AD2B28
:1000E0003E68EC8276BED98FE1A93E4C80EFFFBE20
:1000F00001C4FF7F3F000000000011241FBECFE5B8
:10010000D4E0DEBFCDBF20E0A0E6B0E001C01D928C
:10011000A137B207E1F70E94AE020C9479060C9465
:10012000000017B883E886B9089597B1907E97B913
:1001300097B18770982B97B9369A349BFECF349A33
:1001400084B195B1089584E69FEF9DBD8CBD1FBC21
:1001500085E08EBD84E089BF7894089511B861B1BF
:10016000637070E080E090E00E94C5039B01AC01E9
:1001700060E070E080E890E40E94E2049B01AC0142
:100180000E94B1029B01AC0160E070E080E89FE456
:100190000E9422030E94940360B9089594EA96BFD6
:1001A00006B607FEFDCF83B984E886BF06B607FE14
:1001B000FDCF089584E986BF86B708956AE00E945E
:1001C000670620E1829F900D1124892F08950E94D7
:1001D000DE0083B984E886BF06B607FEFDCF08952A
:1001E000CF93C82F0E94AE0080EA0E94CE008C2FD1
:1001F0000E94E7000E94DA008C2FCF910895609151
:100200006700709168008091690090916A00209168
:100210006D0030916E0040916F00509170000E940F
:10022000B10260936D0070936E0080936F009093A5
:100230007000209160002F5F209360002930C1F48E
:1002400020E030E040E251E40E942203609363002A
:100250007093640080936500909366001092600034
:1002600010926D0010926E0010926F00109270004C
:10027000089580E00E94950090936C0080936B003D
:1002800080916B0090916C0025E0289FB001299F20
:10029000700D112480E090E00E94C30320E030EC58
:1002A0004FE754E40E942203609367007093680054
:1002B0008093690090936A00609167007091680074
:1002C0008091690090916A0020E030E048EC52E4AF
:1002D0000E947504609367007093680080936900C2
:1002E00090936A000C94FF001F920F920FB60F922A
:1002F00011242F933F934F935F936F937F938F932B
:100300009F93AF93BF93EF93FF9384E69FEF9DBDC1
:100310008CBD0E943901FF91EF91BF91AF919F91E8
:100320008F917F916F915F914F913F912F910F909E
:100330000FBE0F901F901895BF92CF92DF92EF9251
:10034000FF920F931F93CF93DF93C5E3D0E410E6A2
:1003500005E485E7F82E90E5E92E20E7D22E35E575
:10036000C32E45E6B42EB39B3CC0809161009091B2
:100370006200B39B05C08330910514F4019607C059
:10038000B29B09C08C3F2FEF92072CF001979093FE
:10039000620080936100E0916100F0916200359607
:1003A000E930F105A8F4E65DFF4F0C947306B2BA8C
:1003B0000FC0C2BA0DC0D2BA0BC0E2BA09C0F2BABD
:1003C00007C002BB05C012BB03C0D2BB01C0C2BB89
:1003D000B399FECFB299FCCF809161000E94F000EA
:1003E000C2CFB299C2CFDF91CF911F910F91FF90F1
:1003F000EF90DF90CF90BF900895CF92DF92EF9271
:10040000FF92CF9392B3981327C0C42FC09063007C
:10041000D0906400E0906500F090660070E080E0AD
:1004200090E00E94C503A70196010E941D031816C3
:100430001CF0C59AC69810C06C2F70E080E090E068
:100440000E94C5039B01AC01C701B6010E941D03B8
:10045000181614F0C598C69ACF91FF90EF90DF90D0
:10046000CF900895E0916100F09162003596E930F7
:10047000F10508F044C0ED5CFF4F0C9473064CE3AB
:1004800050E066E470E085E690E037C042E350E07B
:100490006CE370E085E590E030C041E450E06BE44F
:1004A00070E080E790E029C04DE250E067E370E043
:1004B00080E590E022C046E450E060E570E085E72A
:1004C00090E01BC048E250E062E370E085E490E019
:1004D00014C047E350E061E470E080E690E00DC0B6
:1004E00043E250E06DE270E080E490E006C04EE14F
:1004F00050E068E270E085E390E00C94FD0108951F
:100500000E94A3000E9491008FEF81BBB89AD79AF6
:10051000BD9ABE9ABC9ABB98BA98B99880E682BB3D
:10052000C498C598C698C09ADF9AC0E4D1E010E19B
:10053000B19905C00E949C010E943202F9CF88B394
:100540008C2788BB88B38D2788BB8BB380588BBB27
:1005500088B3812788BBB199FECFECCF0E9480027F
:100560005058BB27AA270E94C8020C943B040E9443
:100570002D0438F00E94340420F039F49F3F19F420
:1005800026F40C942A040EF4E095E7FB0C94240462
:10059000E92F0E944C0458F3BA17620773078407C7
:1005A000950720F079F4A6F50C946E040EF4E0950E
:1005B0000B2EBA2FA02D0B01B90190010C01CA011D
:1005C000A0011124FF27591B99F0593F50F4503EC8
:1005D00068F11A16F040A22F232F342F4427585FBA
:1005E000F3CF469537952795A795F0405395C9F7D2
:1005F0007EF41F16BA0B620B730B840BBAF091508A
:10060000A1F0FF0FBB1F661F771F881FC2F70EC028
:10061000BA0F621F731F841F48F4879577956795FB
:10062000B795F7959E3F08F0B0CF9395880F08F0E7
:100630009927EE0F9795879508950E94000408F476
:1006400081E008950E9436030C943B040E94340418
:1006500058F00E942D0440F029F45F3F29F00C94DB
:10066000240451110C946F040C942A040E944C042D
:1006700068F39923B1F3552391F3951B550BBB27D1
:10068000AA2762177307840738F09F5F5F4F220F16
:10069000331F441FAA1FA9F335D00E2E3AF0E0E80D
:1006A00032D091505040E695001CCAF72BD0FE2F57
:1006B00029D0660F771F881FBB1F261737074807EB
:1006C000AB07B0E809F0BB0B802DBF01FF279358A3
:1006D0005F4F3AF09E3F510578F00C9424040C943F
:1006E0006F045F3FE4F3983ED4F386957795679562
:1006F000B795F7959F5FC9F7880F911D96958795D8
:1007000097F90895E1E0660F771F881FBB1F6217F6
:1007100073078407BA0720F0621B730B840BBA0BB4
:10072000EE1F88F7E09508950E94540488F09F57C3
:1007300098F0B92F9927B751B0F0E1F0660F771F05
:10074000881F991F1AF0BA95C9F714C0B13091F0FB
:100750000E946E04B1E008950C946E04672F782F08
:100760008827B85F39F0B93FCCF3869577956795C0
:10077000B395D9F73EF490958095709561957F4F2C
:100780008F4F9F4F0895E89409C097FB3EF49095D2
:100790008095709561957F4F8F4F9F4F9923A9F05A
:1007A000F92F96E9BB279395F695879577956795E9
:1007B000B795F111F8CFFAF4BB0F11F460FF1BC02D
:1007C0006F5F7F4F8F4F9F4F16C0882311F096E9C0
:1007D00011C0772321F09EE8872F762F05C066236E
:1007E00071F096E8862F70E060E02AF09A95660F27
:1007F000771F881FDAF7880F9695879597F90895E0
:10080000990F0008550FAA0BE0E8FEEF1616170621
:10081000E807F907C0F012161306E407F50798F089
:10082000621B730B840B950B39F40A2661F0232BA2
:10083000242B252B21F408950A2609F4A140A6951E
:100840008FEF811D811D089597F99F6780E870E003
:1008500060E008959FEF80EC089500240A94161636
:10086000170618060906089500240A94121613069E
:10087000140605060895092E0394000C11F488232C
:1008800052F0BB0F40F4BF2B11F460FF04C06F5F48
:100890007F4F8F4F9F4F089557FD9058440F551F1E
:1008A00059F05F3F71F04795880F97FB991F61F0F2
:1008B0009F3F79F087950895121613061406551F69
:1008C000F2CF4695F1DF08C0161617061806991FD5
:1008D000F1CF86957105610508940895E894BB27CA
:1008E00066277727CB0197F908950E9488040C9416
:1008F0003B040E942D0438F00E94340420F095231C
:1009000011F00C9424040C942A0411240C946F0408
:100910000E944C0470F3959FC1F3950F50E0551F52
:10092000629FF001729FBB27F00DB11D639FAA2744
:10093000F00DB11DAA1F649F6627B00DA11D661F93
:10094000829F2227B00DA11D621F739FB00DA11DB4
:10095000621F839FA00D611D221F749F3327A00D6E
:10096000611D231F849F600D211D822F762F6A2F0A
:1009700011249F5750409AF0F1F088234AF0EE0F6F
:10098000FF1FBB1F661F771F881F91505040A9F79C
:100990009E3F510580F00C9424040C946F045F3F3B
:1009A000E4F3983ED4F3869577956795B795F795D8
:1009B000E7959F5FC1F7FE2B880F911D9695879550
:1009C00097F90895FA01EE0FFF1F309621053105C2
:1009D000A1F16115710561F48038BFE39B0749F10E
:1009E00068949038810561F08038BFEF9B0741F033
:1009F00099234AF5FF3FE1053105210519F1E894F6
:100A00000894E795D901AA2329F4AB2FBE2FF85FEC
:100A1000D0F310C0FF5F70F4A695E0F7F73950F0FF
:100A200019F0FF3A38F49F779F930DD00F9007FC91
:100A30009058089546F00C942A0460E070E080E835
:100A40009FE308954FE79F775F934F933F932F93D3
:100A50000E94DD052F913F914F915F910E94750497
:100A60000C943A0529F416F00C9424040C946E04AA
:100A70000C942A040E945404A8F39638A0F707F8AF
:100A80000F92E8942BE33AEA48EB5FE70E948B046D
:100A90000F920F920F924DB75EB70F920E942506EC
:100AA000E8E7F0E00E946C054F915F91EF91FF91B4
:100AB000E595EE1FFF1F49F0FE57E0684427EE0F53
:100AC000441FFA95E1F74195550B0E949F050F9041
:100AD00007FE0C9493050895DF93CF931F930F9314
:100AE000FF92EF92DF927B018C01689406C0DA2EB0
:100AF000EF010E948804FE01E894A59125913591AB
:100B000045915591A6F3EF010E94C802FE0197019D
:100B1000A801DA9469F7DF90EF90FF900F911F9191
:100B2000CF91DF9108959B01AC0160E070E080E817
:100B30009FE30C9422030C9424040C9459060E9405
:100B40005404D8F39923C9F3940F511DA3F3915082
:100B5000504094F059F0882332F0660F771F881FB9
:100B600091505040C1F79E3F51052CF7880F911DC1
:100B70009695879597F908955F3FACF0983E9CF065
:100B8000BB27869577956795B79508F4B1609395DF
:100B9000C1F7BB0F58F711F460FFE8CF6F5F7F4FCD
:100BA0008F4F9F4FE3CF0C946F0416F00C945906AF
:100BB0000C942A0468940C9424040E945404A8F30E
:100BC0009923C1F3AEF3DF93CF931F930F93FF925B
:100BD000C92FDD2788232AF02197660F771F881FEA
:100BE000DAF720E030E040E85FEB9FE3883920F05F
:100BF000803E38F021968F770E94B102E0EAF0E063
:100C000004C00E94B102EDECF0E00E946C058B0183
:100C1000BE01EC01FB2E6F5771097595771F880B8C
:100C2000990B0E94C50328E132E741E35FE30E948C
:100C30008804AF2D9801AE01FF900F911F91CF91C5
:100C4000DF910E94C8020C943B04FA01DC01AA0F58
:100C5000BB1F9B01AC01BF5728F422273327442731
:100C6000507820C0B75190F4AB2F002446953795AB
:100C70002795011CA395D2F3002071F0220F331F9A
:100C8000441FB395DAF30ED00C94B00261307105B5
:100C9000A0E88A07B94630F49B01AC0166277727A4
:100CA00088279078309621F02083318342835383C4
:100CB00008959F3F31F0915020F48795779567957F
:100CC000B795880F911D9695879597F90895991B6B
:100CD00079E004C0991F961708F0961B881F7A9533
:100CE000C9F780950895EE0FFF1F0590F491E02D50
:060CF0000994F894FFCF07
:00000001FF
