S00C0000636F64652E737265637D
S11300000C942A000C943C000C943C000C943C008E
S11300100C943C000C943C000C943C000C943C006C
S11300200C943C000C943C000C943C000C943C005C
S11300300C943C000C943C000C943C000C943C004C
S11300400C943C000C943C000C943C000C943C003C
S11300500C943C0011241FBECFE5D4E0DEBFCDBF1D
S113006020E0A0E6B0E001C01D92A236B207E1F79D
S11300700E947C000C947E000C9400008FEF81BBE6
S113008087B3877F87BB87B38B7F87BB80E690E08E
S1130090909361008093600082BBB39B0DC08091FC
S11300A060009091610001969093610080936000DC
S11300B082BBB399FECFF1CFB29B0DC0809160009B
S11300C0909161000197909361008093600082BBDE
S11300D0B299FECFE2CF80916000909161008534A7
S11300E09105D9F6B39BD9CF80E790E09093610056
S11300F08093600082BBD1CF0E943E00F894FFCF72
S9030000FC
