:100000000C9433000C9445000C9445000C9445006E
:100010000C9445000C9445000C9445000C9445004C
:100020000C9445000C9445000C9445000C9445003C
:100030000C9445000C9445000C9445000C9445002C
:100040000C9445000C9445000C9445000C9445001C
:100050000C944500850082007C00760070007F00D3
:100060006D007300790011241FBECFE5D4E0DEBF20
:10007000CDBF20E0A0E6B0E001C01D92A236B207DD
:10008000E1F70E94B4000C94BC000C94000080E6E0
:1000900082BB45C0B39B0AC0809160009091610013
:1000A000019690936100809360000BC0B29B09C0E1
:1000B000809160009091610001979093610080931E
:1000C0006000E0916000F09161003596E930F10543
:1000D000F0F4E65DFF4F0C94B60085E682BB17C0D6
:1000E00085E582BB14C080E782BB11C080E582BB7E
:1000F0000EC085E782BB0BC085E482BB08C080E6EA
:1001000082BB05C080E482BB02C085E382BBB2999A
:10011000FECFB399FCCFB399BDCFB299BBCF88B313
:100120008034C9F308958FEF81BB87B3806287BBAA
:1001300087B3806487BB87B3877F87BB87B38B7F99
:1001400087BB87B38D7F87BB80E682BB88B38F7DFB
:1001500088BB88B38F7B88BBB19BFECF0E944700D2
:1001600088B3806488BBF8CF0E949300EE0FFF1F16
:0C0170000590F491E02D0994F894FFCF65
:00000001FF
