:100000000C947D000C948F000C948F000C948F0046
:100010000C948F000C948F000C948F000C948F0024
:100020000C949D010C948F000C948F000C948F0005
:100030000C948F000C948F000C948F000C948F0004
:100040000C948F000C948F000C948F000C948F00F4
:100050000C948F00270224021E02180212022102B1
:100060000F0215021B02D902D002BE02AC029A0294
:10007000C7029102A302B50207634236B79BD8A715
:100080001A39685618AEBAAB558C1D3CB7CC5763BD
:10009000BD6DEDFD753EF6177231BF000000803F6B
:1000A00008000000BE922449123EABAAAA2ABECD87
:1000B000CCCC4C3E00000080BEABAAAAAA3E0000F9
:1000C0000000BF000000803F0000000000084178F1
:1000D000D3BB4387D1133D190E3CC3BD4282AD2B28
:1000E0003E68EC8276BED98FE1A93E4C80EFFFBE20
:1000F00001C4FF7F3F000000000011241FBECFE5B8
:10010000D4E0DEBFCDBF20E0A0E6B0E001C01D928C
:10011000AA37B207E1F70E94FB030C94C6070C94C0
:10012000000017B883E886B90895877097B1907E6C
:1001300097B997B1892B87B986B1806486B9349B0A
:10014000FECF86B1806186B984B195B1089584E609
:100150009FEF9DBD8CBD1FBC85E08EBD84E089BF37
:100160007894089511B861B1637070E080E090E018
:100170000E9412059B01AC0160E070E080E890E411
:100180000E942F069B01AC010E94FE039B01AC0163
:1001900060E070E080E89FE40E946F040E94E10448
:1001A00060B9089594EA96BF06B607FEFDCF83B9FD
:1001B00084E886BF06B607FEFDCF089594EA96BF91
:1001C00006B607FEFDCF83B984E886BF06B607FEF4
:1001D000FDCF089584E886BF06B607FEFDCF83B144
:1001E000089584E986BF86B708959DEC899F912D77
:1001F0001124969596959695392F330F232F220F1C
:10020000220F230F821B30E1939F800D112408954C
:100210000E94F50083B984E886BF06B607FEFDCFCD
:100220000895CF93C82F0E94B20080EA0E94D200A6
:100230008C2F0E94080181EA0E94DE000E94EA00E1
:10024000C82F0E94F1008C2FCF910895609170000B
:1002500070917100809172009091730020917600EE
:100260003091770040917800509179000E94FE0310
:100270006093760070937700809378009093790074
:10028000209169002F5F209369002930C1F42DEC83
:100290003CEC41E151E40E946F0460936C00709368
:1002A0006D0080936E0090936F0010926900109221
:1002B00076001092770010927800109279000895DD
:1002C00080E00E9495009093750080937400609187
:1002D000740070917500CB01880F991F880F991FCA
:1002E000680F791F80E090E00E94100520E030EC5C
:1002F0004FE754E40E946F046093700070937100A4
:1003000080937200909373006091700070917100FF
:10031000809172009091730020E030E048EC52E44C
:100320000E94C20560937000709371008093720008
:10033000909373000E94260108951F920F920FB6AA
:100340000F9211242F933F934F935F936F937F935B
:100350008F939F93AF93BF93EF93FF9384E69FEFA9
:100360009DBD8CBD0E946001FF91EF91BF91AF9147
:100370009F918F917F916F915F914F913F912F91BD
:100380000F900FBE0F901F901895B39B1DC08091CA
:100390006A0090916B0083309105B4F401969093BC
:1003A0006B0080936A0010926000109261001092BE
:1003B0006200109263001092640010926500109227
:1003C0006600109267001FC0B29B1DC080916A003A
:1003D00090916B008C3F2FEF9207ACF001979093B8
:1003E0006B0080936A00109260001092610010927E
:1003F00062001092630010926400109265001092E7
:10040000660010926700E0916A00F0916B003596EB
:10041000E930F105F0F4E65DFF4F0C94B40785E692
:1004200082BB17C085E582BB14C080E782BB11C0C8
:1004300080E582BB0EC085E782BB0BC085E482BB32
:1004400008C080E682BB05C080E482BB02C085E3B1
:1004500082BBB399FECFB299FCCF80916A000E9413
:1004600011010895CF92DF92EF92FF92CF932091E6
:100470006A0030916B002817390709F03FC0C42F7C
:1004800070E080E090E00E941205C0906C00D09077
:100490006D00E0906E00F0906F00A70196010E9441
:1004A0006A04181654F088B3806288BB88B38F7BC7
:1004B00088BB88B3806188BB21C06C2F70E080E06E
:1004C00090E00E9412059B01AC01C701B6010E9499
:1004D0006A0418169CF088B38F7D88BB88B380644B
:1004E00088BB98B380E1892788BB2FED82E292E038
:1004F000215080409040E1F700C00000CF91FF9074
:10050000EF90DF90CF900895E0916A00F0916B003A
:100510003596E930F10508F054C0ED5CFF4F0C94BE
:10052000B4074CE350E066E470E081E090E00E94A4
:100530003202089542E350E06CE370E08FEF9FEFEA
:100540000E943202089541E450E06BE470E082E0E2
:1005500090E00E94320208954DE250E067E370E0BF
:100560008EEF9FEF0E943202089546E450E060E56E
:1005700070E083E090E00E943202089548E250E08B
:1005800062E370E08DEF9FEF0E943202089547E32F
:1005900050E061E470E080E090E00E943202089553
:1005A00043E250E06DE270E08CEF9FEF0E94320278
:1005B00008954EE150E068E270E08BEF9FEF0E94FB
:1005C00032020895B19B10C08091680081110CC067
:1005D00088B391E0892788BB8BB380588BBB9093FD
:1005E0006800B199FECF0895B19B17C08091680053
:1005F000813099F41092680098B3892788BB8BB337
:1006000080588BBB88B38F7E88BB88B38F7D88BBB7
:1006100088B38F7B88BBB199FECF0895813039F4C0
:1006200088B38E7F88BB8BB38F778BBB0895811186
:1006300006C088B3816088BB8BB380688BBB08958C
:1006400081E090E00E940E03609170007091710053
:1006500080917200909173000E94E104862F0E94A5
:10066000F50082BB08950E94A7000E9491008FEFC1
:1006700081BB87B3816087BB8AB380688ABB87B33D
:10068000806287BB87B3806487BB87B3806187BB89
:1006900087B3877F87BB87B38B7F87BB87B38D7F0C
:1006A00087BB80E682BB88B38F7E88BB88B38F7D93
:1006B00088BB88B38F7B88BB88B3816088BB8BB3D2
:1006C00080688BBB0E94E20290C00E9420030E94BF
:1006D00084020E94E202B39902C0B29B86C01092CB
:1006E00060001092610010926200109263001092FC
:1006F00064001092650010926600109267005AC064
:1007000081E090E00E940E030E94C5010E948402D5
:100710000E94E202209160003091610040916200ED
:100720005091630060916400709165008091660053
:1007300090916700A1E00E94BA0720936000309377
:100740006100409362005093630060936400709373
:100750006500809366009093670080E090E00E94BF
:100760000E030E94C5010E9484020E94E2022091B1
:10077000600030916100409162005091630060918F
:100780006400709165008091660090916700A1E01F
:100790000E94BA072093600030936100409362008A
:1007A00050936300609364007093650080936600CB
:1007B0009093670020916000309161004091620049
:1007C00050916300609164007091650080916600B3
:1007D00090916700273E3340410551056105710541
:1007E0008105910509F00CF48BCF80916800813070
:1007F00009F46BCF67CF0E9433035058BB27AA2759
:100800000E9415040C9488050E947A0538F00E9415
:10081000810520F039F49F3F19F426F40C947705F4
:100820000EF4E095E7FB0C947105E92F0E94990501
:1008300058F3BA17620773078407950720F079F415
:10084000A6F50C94BB050EF4E0950B2EBA2FA02D47
:100850000B01B90190010C01CA01A0011124FF276D
:10086000591B99F0593F50F4503E68F11A16F04068
:10087000A22F232F342F4427585FF3CF4695379567
:100880002795A795F0405395C9F77EF41F16BA0B2C
:10089000620B730B840BBAF09150A1F0FF0FBB1FDA
:1008A000661F771F881FC2F70EC0BA0F621F731F23
:1008B000841F48F4879577956795B795F7959E3F80
:1008C00008F0B0CF9395880F08F09927EE0F979511
:1008D000879508950E944D0508F481E008950E94CF
:1008E00083040C9488050E94810558F00E947A05C3
:1008F00040F029F45F3F29F00C94710551110C94DC
:10090000BC050C9477050E94990568F39923B1F30F
:10091000552391F3951B550BBB27AA276217730725
:10092000840738F09F5F5F4F220F331F441FAA1FB9
:10093000A9F335D00E2E3AF0E0E832D09150504075
:10094000E695001CCAF72BD0FE2F29D0660F771F23
:10095000881FBB1F261737074807AB07B0E809F009
:10096000BB0B802DBF01FF2793585F4F3AF09E3F8E
:10097000510578F00C9471050C94BC055F3FE4F3CD
:10098000983ED4F3869577956795B795F7959F5FD1
:10099000C9F7880F911D9695879597F90895E1E01D
:1009A000660F771F881FBB1F621773078407BA077C
:1009B00020F0621B730B840BBA0BEE1F88F7E095D7
:1009C00008950E94A10588F09F5798F0B92F9927A4
:1009D000B751B0F0E1F0660F771F881F991F1AF02A
:1009E000BA95C9F714C0B13091F00E94BB05B1E0CF
:1009F00008950C94BB05672F782F8827B85F39F0CE
:100A0000B93FCCF3869577956795B395D9F73EF4C2
:100A100090958095709561957F4F8F4F9F4F08956A
:100A2000E89409C097FB3EF4909580957095619588
:100A30007F4F8F4F9F4F9923A9F0F92F96E9BB273E
:100A40009395F695879577956795B795F111F8CFBA
:100A5000FAF4BB0F11F460FF1BC06F5F7F4F8F4F25
:100A60009F4F16C0882311F096E911C0772321F01B
:100A70009EE8872F762F05C0662371F096E8862FB3
:100A800070E060E02AF09A95660F771F881FDAF70A
:100A9000880F9695879597F90895990F0008550F37
:100AA000AA0BE0E8FEEF16161706E807F907C0F0F4
:100AB00012161306E407F50798F0621B730B840BFC
:100AC000950B39F40A2661F0232B242B252B21F4D6
:100AD00008950A2609F4A140A6958FEF811D811D76
:100AE000089597F99F6780E870E060E008959FEFB0
:100AF00080EC089500240A941616170618060906B5
:100B0000089500240A941216130614060506089583
:100B1000092E0394000C11F4882352F0BB0F40F40B
:100B2000BF2B11F460FF04C06F5F7F4F8F4F9F4F4B
:100B3000089557FD9058440F551F59F05F3F71F0CD
:100B40004795880F97FB991F61F09F3F79F0879534
:100B50000895121613061406551FF2CF4695F1DFBD
:100B600008C0161617061806991FF1CF869571054D
:100B7000610508940895E894BB2766277727CB0181
:100B800097F908950E94D5050C9488050E947A056E
:100B900038F00E94810520F0952311F00C94710526
:100BA0000C94770511240C94BC050E94990570F3F0
:100BB000959FC1F3950F50E0551F629FF001729F02
:100BC000BB27F00DB11D639FAA27F00DB11DAA1F11
:100BD000649F6627B00DA11D661F829F2227B00D5E
:100BE000A11D621F739FB00DA11D621F839FA00DE9
:100BF000611D221F749F3327A00D611D231F849F39
:100C0000600D211D822F762F6A2F11249F5750408F
:100C10009AF0F1F088234AF0EE0FFF1FBB1F661F0A
:100C2000771F881F91505040A9F79E3F510580F0D3
:100C30000C9471050C94BC055F3FE4F3983ED4F32B
:100C4000869577956795B795F795E7959F5FC1F777
:100C5000FE2B880F911D9695879597F90895FA01B7
:100C6000EE0FFF1F309621053105A1F161157105C9
:100C700061F48038BFE39B0749F16894903881059F
:100C800061F08038BFEF9B0741F099234AF5FF3FA1
:100C9000E1053105210519F1E8940894E795D9019A
:100CA000AA2329F4AB2FBE2FF85FD0F310C0FF5F4B
:100CB00070F4A695E0F7F73950F019F0FF3A38F4E0
:100CC0009F779F930DD00F9007FC9058089546F0A2
:100CD0000C94770560E070E080E89FE308954FE7AB
:100CE0009F775F934F933F932F930E942A072F91F3
:100CF0003F914F915F910E94C2050C94870629F4A1
:100D000016F00C9471050C94BB050C9477050E94A9
:100D1000A105A8F39638A0F707F80F92E8942BE303
:100D20003AEA48EB5FE70E94D8050F920F920F92C4
:100D30004DB75EB70F920E947207E8E7F0E00E949D
:100D4000B9064F915F91EF91FF91E595EE1FFF1F5F
:100D500049F0FE57E0684427EE0F441FFA95E1F78B
:100D60004195550B0E94EC060F9007FE0C94E0068F
:100D70000895DF93CF931F930F93FF92EF92DF922B
:100D80007B018C01689406C0DA2EEF010E94D50524
:100D9000FE01E894A5912591359145915591A6F3D1
:100DA000EF010E941504FE019701A801DA9469F78A
:100DB000DF90EF90FF900F911F91CF91DF910895F9
:100DC0009B01AC0160E070E080E89FE30C946F044D
:100DD0000C9471050C94A6070E94A105D8F39923E1
:100DE000C9F3940F511DA3F39150504094F059F062
:100DF000882332F0660F771F881F91505040C1F74B
:100E00009E3F51052CF7880F911D9695879597F970
:100E100008955F3FACF0983E9CF0BB278695779590
:100E20006795B79508F4B1609395C1F7BB0F58F774
:100E300011F460FFE8CF6F5F7F4F8F4F9F4FE3CF7D
:100E40000C94BC0516F00C94A6070C9477056894D6
:100E50000C9471050E94A105A8F39923C1F3AEF388
:100E6000DF93CF931F930F93FF92C92FDD27882322
:100E70002AF02197660F771F881FDAF720E030E00D
:100E800040E85FEB9FE3883920F0803E38F0219600
:100E90008F770E94FE03E0EAF0E004C00E94FE03A8
:100EA000EDECF0E00E94B9068B01BE01EC01FB2ED7
:100EB0006F5771097595771F880B990B0E94120562
:100EC00028E132E741E35FE30E94D505AF2D9801A9
:100ED000AE01FF900F911F91CF91DF910E941504F9
:100EE0000C948805FA01DC01AA0FBB1F9B01AC0121
:100EF000BF5728F4222733274427507820C0B75102
:100F000090F4AB2F0024469537952795011CA395A7
:100F1000D2F3002071F0220F331F441FB395DAF390
:100F20000ED00C94FD0361307105A0E88A07B94624
:100F300030F49B01AC01662777278827907830969C
:100F400021F0208331834283538308959F3F31F002
:100F5000915020F4879577956795B795880F911DE7
:100F60009695879597F90895EE0FFF1F0590F491D8
:100F7000E02D09940024A7FD00942A0F301D401D88
:100F8000501D601D701D801D901D0895F894FFCFA9
:00000001FF
