S00C0000636F64652E737265637D
S11300000C9433000C9445000C9445000C9445006A
S11300100C9445000C9445000C9445000C94450048
S11300200C9445000C9445000C9445000C94450038
S11300300C9445000C9445000C9445000C94450028
S11300400C9445000C9445000C9445000C94450018
S11300500C944500930090008A0084007E008D007B
S11300607B008100870011241FBECFE5D4E0DEBFF2
S1130070CDBF20E0A0E6B0E001C01D92A236B207D9
S1130080E1F70E94A1000C94A9000C9400008FEFEA
S113009081BB87B3806287BB87B3877F87BB87B306
S11300A08B7F87BB80E682BB88B3806288BB41C0FC
S11300B0B39B0AC080916000909161000196909377
S11300C06100809360000BC0B29B09C08091600006
S11300D09091610001979093610080936000E0919A
S11300E06000F09161003596E930F105F0F4E65DC9
S11300F0FF4F0C94A30085E682BB17C085E582BB45
S113010014C080E782BB11C080E582BB0EC085E7C6
S113011082BB0BC085E482BB08C080E682BB05C0FD
S113012080E482BB02C085E382BBB299FECFB3995F
S1130130FCCFB399BDCFB299BBCF88B3877F88BBBF
S1130140F8CF0E944700EE0FFF1F0590F491E02DB9
S10901500994F894FFCFAE
S9030000FC
