:100000000C942A000C943C000C943C000C943C0092
:100010000C943C000C943C000C943C000C943C0070
:100020000C943C000C943C000C943C000C943C0060
:100030000C943C000C943C000C943C000C943C0050
:100040000C943C000C943C000C943C000C943C0040
:100050000C943C0011241FBECFE5D4E0DEBFCDBF21
:1000600020E0A0E6B0E001C01D92AA36B207E1F799
:100070000E94A0000C943E020C94000097B1907E68
:1000800097B997B1892B87B986B1806486B9349BBB
:10009000FECF86B1806186B984B195B108958FEFA6
:1000A00084BB81BB80E682BB15BA80E00E943E0023
:1000B0009093690080936800609168007091690076
:1000C000CB01880F991F880F991F680F791F80E057
:1000D00090E00E94430120E030EC4FE754E40E949E
:1000E000A20020E030E040E251E40E94D1016B0127
:1000F0007C01609364007093650080936600909328
:10010000670020E030E040E251E40E94D1016093BA
:100110006000709361008093620090936300C70158
:10012000B6010E94140162BB609160007091610091
:1001300080916200909163000E94140165BBB5CF6D
:100140000E944F000E94B6000C9497010E949001FB
:1001500058F00E94890140F029F45F3F29F00C9487
:10016000800151110C94CB010C9486010E94A801CE
:1001700068F39923B1F3552391F3951B550BBB27D6
:10018000AA2762177307840738F09F5F5F4F220F1B
:10019000331F441FAA1FA9F335D00E2E3AF0E0E812
:1001A00032D091505040E695001CCAF72BD0FE2F5C
:1001B00029D0660F771F881FBB1F261737074807F0
:1001C000AB07B0E809F0BB0B802DBF01FF279358A8
:1001D0005F4F3AF09E3F510578F00C9480010C94EB
:1001E000CB015F3FE4F3983ED4F38695779567950E
:1001F000B795F7959F5FC9F7880F911D96958795DD
:1002000097F90895E1E0660F771F881FBB1F6217FB
:1002100073078407BA0720F0621B730B840BBA0BB9
:10022000EE1F88F7E09508950E94B00188F09F576F
:1002300098F0B92F9927B751B0F0E1F0660F771F0A
:10024000881F991F1AF0BA95C9F714C0B13091F000
:100250000E94CA01B1E008950C94CA01672F782F5B
:100260008827B85F39F0B93FCCF3869577956795C5
:10027000B395D9F73EF490958095709561957F4F31
:100280008F4F9F4F0895E89409C097FB3EF49095D7
:100290008095709561957F4F8F4F9F4F9923A9F05F
:1002A000F92F96E9BB279395F695879577956795EE
:1002B000B795F111F8CFFAF4BB0F11F460FF1BC032
:1002C0006F5F7F4F8F4F9F4F16C0882311F096E9C5
:1002D00011C0772321F09EE8872F762F05C0662373
:1002E00071F096E8862F70E060E02AF09A95660F2C
:1002F000771F881FDAF7880F9695879597F90895E5
:1003000097F99F6780E870E060E008959FEF80ECC8
:10031000089500240A94161617061806090608956B
:1003200000240A9412161306140605060895092ED1
:100330000394000C11F4882352F0BB0F40F4BF2B40
:1003400011F460FF04C06F5F7F4F8F4F9F4F089580
:1003500057FD9058440F551F59F05F3F71F0479576
:10036000880F97FB991F61F09F3F79F0879508955B
:10037000121613061406551FF2CF4695F1DF08C07A
:10038000161617061806991FF1CF86957105610597
:1003900008940895E894BB2766277727CB0197F93F
:1003A00008950E94E4010C9497010E94890138F09D
:1003B0000E94900120F0952311F00C9480010C9480
:1003C000860111240C94CB010E94A80170F3959F23
:1003D000C1F3950F50E0551F629FF001729FBB273C
:1003E000F00DB11D639FAA27F00DB11DAA1F649FD8
:1003F0006627B00DA11D661F829F2227B00DA11D8B
:10040000621F739FB00DA11D621F839FA00D611D10
:10041000221F749F3327A00D611D231F849F600D31
:10042000211D822F762F6A2F11249F5750409AF05A
:10043000F1F088234AF0EE0FFF1FBB1F661F771FE6
:10044000881F91505040A9F79E3F510580F00C94B1
:1004500080010C94CB015F3FE4F3983ED4F3869582
:1004600077956795B795F795E7959F5FC1F7FE2B51
:10047000880F911D9695879597F90895F894FFCF69
:00000001FF
